:020000022000DC
:107000000000042001710200558202004B9A020028
:1070100055820200558202005582020000000000E5
:107020000000000000000000000000005582020087
:1070300055820200000000005582020055820200C5
:1070400055820200558202005582020055820200DC
:107050005582020055820200B77702005582020075
:1070600055820200558202005582020055820200BC
:1070700055820200558202005582020055820200AC
:1070800055820200F77E02005582020055820200FE
:10709000558202005582020055820200558202008C
:1070A000558202005582020055820200558202007C
:1070B000558202005582020000000000000000001E
:1070C000558202005582020055820200558202005C
:1070D000558202005582020055820200558202004C
:1070E0005582020055820200558202000000000015
:1070F00000000000558202000000000055820200DE
:1071000001F0ABF8084809490022814201D004C0CF
:10711000FBE707480749084A814202D008CA08C06D
:10712000FAE700F0E8F800DE506000205C62002022
:10713000006000205060002078A0020080B56F46FB
:1071400082B04FF0FF30019000200090684600F0C0
:1071500085F8B0B502AF8AB00446694649F6386092
:10716000CDE9021194F82D1040F20C55C0F2020046
:10717000C5F20005CDE900040020049011B10329F7
:1071800035D010E0079006A84FF0C061069100F0DE
:10719000FDFB4FF0806028600320C5F85C021A20D8
:1071A00084F82C0008E004F1300002A901F07BF81B
:1071B00000283ED194F82C0000F01F0180064FF407
:1071C0003F704FF0010202FA01F158BF6FF0030067
:1071D000295006A84FF4C032002301F041F8DDE940
:1071E00006129DF82000C4E90C1284F8380004F15E
:1071F000300002A901F057F800BB94F82C000122DE
:107200000023810600F01F00294602FA00F048BF63
:1072100001F54071086006A84FF4C03201F020F873
:10722000DDE906129DF82000C4E90C1284F838004C
:10723000B9E7042084F82D000AB0B0BD032084F81B
:107240002D000AB0B0BD80B56F4646F25001002255
:10725000C2F2000181F82D20886280BD80B56F46A2
:1072600082B046F250050446C2F2000540F2011019
:1072700055E8061FA1B945E806010029F8D147F2F3
:107280005310C0F2020068622046FFF7DCFF204680
:10729000294601F0DEF8204601F001FA20BFFAE7A6
:1072A00040F20900BFF32F8FC0F20000ADF80400D8
:1072B00001A801F093FA781E00F004F800F06FFACC
:1072C00001F0FCFAD0B502AF82B0044640F20200F1
:1072D000C0F2000027F80A0CA7F10A0001F0A4FA96
:1072E000204601F0F4F949F65020C0F2020001F006
:1072F0009BFA02B0D0BD80B56F46FFF71FFF80B587
:107300006F4682B046F2900172B6C2F200010A786E
:10731000EAB901220A70009040F20600C0F20000B3
:10732000ADF8040001A801F059FA40F20100C0F2E2
:10733000000027F8020CB81E01F076FA49F6542135
:107340006846C0F2020101F07BFA00F028FA4EF61E
:107350002450CEF20000016821F48021016000DE9B
:10736000FEDE80B56F460068BDE8804002F08EB951
:10737000F0B503AF2DE9000F83B0002900F0B9800C
:1073800046F291080446C2F2000800EB010A98F8A0
:10739000030046F2080947F2A16BC2F20009C0F2ED
:1073A000020B08E0012840F0A8800020A8F80300A4
:1073B000544500F09E8014F8011BC2B2072A1FD268
:1073C000002957D007F8211C5D46D9F82C0000F0A1
:1073D0000300022847F21F60C0F2020008BF054602
:1073E00009F11800A7F121010122A8470028F7D0D0
:1073F000012840F0828098F8030098F8041040E0DB
:1074000000295CD007F81E1C5D46D9F82C0000F05E
:107410000300022847F21F60C0F2020008BF0546C1
:1074200009F11806A7F11E0101223046A8470028DD
:10743000F6D0012861D198F80300013088F80300E4
:10744000C1B28629B4D1FF205D4607F81D0CD9F8DA
:107450002C0000F00300022847F21F60C0F2020077
:1074600008BF0546A7F11D0130460122A8470028A4
:10747000F8D097E70121914098F80420114388F84B
:107480000410013088F80300C2B2072A90D10A061E
:107490008ED08DF808105D46D9F82C0000F003005E
:1074A000022847F21F60C0F2020008BF054609F13A
:1074B000180002A90122A8470028F8D072E7793005
:1074C0005D4640F0800007F81F0CD9F82C0000F052
:1074D0000300022847F21F60C0F2020008BF054601
:1074E00009F11800A7F11F010122A8470028F7D0D1
:1074F00058E703B0BDE8000FF0BD49F66C53012119
:10750000C0F20203012201F0ECFFF0B503AF2DE958
:10751000000786B046F29108C2F2000898F8000011
:10752000002869D098F8030046F2080647F21F6A5F
:1075300047F2A165C2F20006C0F2020AC0F20205DB
:1075400090B307281AD24FF0FF312C4601FA00F011
:1075500098F80410E946084300F07F008DF8000019
:10756000F06A00F00300022808BF544606F1180034
:1075700049460122A0470028F8D013E079302C4674
:1075800040F080008DF80000F06AE94600F003004A
:10759000022808BF544606F1180049460122A047B8
:1075A0000028F8D001281FD100206C468DF800007B
:1075B000F06A00F00300022808BF554606F11800E3
:1075C00021460122A8470028F8D001280CD198F8BC
:1075D00001000021A8F8031088F8001001F08DF9CF
:1075E00006B0BDE80007F0BD49F66C530121C0F2BA
:1075F0000203012201F075FF01210020019149F6EB
:107600005451C0F202010490009149F65C5103907C
:10761000042002906846C0F2020102F020F8F0B5A2
:1076200003AF2DE9000B42B3054614460069EA6832
:10763000BFF35F8F904217D9D3431844E8B1A042FB
:1076400038BF0446A618B6F5806F1BD96868C2F526
:107650008069884610444A4602F07CF8686808EB66
:107660000901A4EB090210E0002812BFC2F58060F6
:1076700040F2FF30801A0028E1D100242046BDE806
:10768000000BF0BD68681044224602F063F8BFF3B7
:107690005F8F6FF39F26EE602046BDE8000BF0BDC4
:1076A000F0B503AF2DE9000B1446B2F5806F28BF8B
:1076B0004FF48064C2680546BFF35F8F1619B6F5B4
:1076C000806F0DD96868C2F58069884610444A46C3
:1076D00002F040F8686808EB0901A4EB090202E037
:1076E00068681044224602F035F8BFF35F8F6FF3ED
:1076F0009F26EE602046BDE8000BF0BDF0B503AF5D
:107700004DF804BD86B001F0EFF846F29101C2F2E7
:1077100000010A7842BB01220A7048708878F8B9E3
:1077200046F2080500208A70C2F200058DF80000BC
:1077300047F2A166E86A47F21F61C0F202066C4692
:1077400000F00300C0F20201022808BF0E4605F156
:10775000180021460122B0470028F8D0012816D190
:1077600006B05DF804BBF0BD01210020019149F68F
:107770008421C0F202010490009149F6285103903F
:10778000042002906846C0F2020101F068FF49F649
:107790006C530121C0F20203012201F0A2FE80B568
:1077A0006F46BDE88040FFF7B0BE80B56F46BDE8CC
:1077B0008040FFF7DDBDF0B503AF2DE900074FF6C0
:1077C000F85046F20834CFF6FF70C4F20004205897
:1077D00038B10120206046F21820C2F2000000F00B
:1077E00019FE4FF6FC5046F21825CFF6FF70C2F294
:1077F0000005205828B10220206005F1080000F0A3
:1078000009FE4FF60060CFF6FF70205828B1042023
:10781000206005F1100000F0FDFD4FF60460CFF68A
:10782000FF70205828B10820206005F1180000F0F2
:10783000F1FD4FF60860CFF6FF70205828B11020F8
:10784000206005F1200000F0E5FD4FF60C60CFF65A
:10785000FF70205828B12020206005F1280000F09A
:10786000D9FD4FF61060CFF6FF70205828B14020A8
:10787000206005F1300000F0CDFD4FF61460CFF62A
:10788000FF70205828B18020206005F1380000F0FA
:10789000C1FD4FF67460CFF6FF702158002960D00B
:1078A000002146F2980A215040F22054C5F200040B
:1078B000D4F80080C2F2000AB8F1000F21D098FA83
:1078C000A8F00126B0FA80F006FA00F128EA0105D6
:1078D000202849D204EB80010AEBC000D1F8E02156
:1078E00022F44032C1F8E02100F094FD95FAA5F0B1
:1078F000002DB0FA80F006FA00F125EA01010D46EC
:10790000E6D1C4F80080D4F80083B8F1000F26D087
:1079100098FAA8F04FF00109B0FA80F009FA00F1E6
:1079200028EA01061F281FD804EB800140F0200040
:107930002F28D1F8E02422F44032C1F8E0241ED8E8
:107940000AEBC00000F066FD96FAA6F0002EB0FA31
:1079500080F009FA00F126EA01010E46E2D1C4F8EE
:107960000083BDE80007F0BD49F67C5049F69C5203
:10797000C0F20200C0F202021D2101F05DFE49F6D4
:10798000AC523021C0F2020201F038FEF0B503AF74
:107990004DF8048D82B0044600F0A6FF46F258214F
:1079A000C2F200010A78012A00F0998201220A70CD
:1079B00000F0A3FF40F204104CF22051C1F200008D
:1079C000C4F20001D0F8002341F208280A60C1F295
:1079D0000008D0F804234A60D0F808238A60D0F861
:1079E0000C23CA60D0F810230A61D0F814234A612E
:1079F000D0F818230A62D0F81C234A62D0F820235A
:107A00008A62D0F82423CA62D0F828230A63D0F807
:107A10002C234A63D0F830230A64D0F834234A6414
:107A2000D0F838238A64D0F83C23CA64D0F84023C5
:107A30000A652179002900F09280012940F0EA804E
:107A4000D8F80000002800F0E5804EF20041012245
:107A5000C4F20101EFF3108072B6C1F804210A6884
:107A6000D20709D10A68D20704BF0A685FEAC27266
:107A700002D10A68D207F2D00022C8F80020BFF372
:107A80004F8F0A68D20709D10A68D20704BF0A6873
:107A90005FEAC27202D10A68D207F2D00022C1F8AE
:107AA00004210A68D20709D10A68D20704BF0A680C
:107AB0005FEAC27202D10A68D207F2D0C00700D1D1
:107AC00062B6012058F8081C122900F0A980CA43A8
:107AD000012112F0120F40F0AA804EF20043EFF3A2
:107AE000108272B6C4F20103C3F804111968C90701
:107AF00009D11968C90704BF19685FEAC17102D1C9
:107B00001968C907F2D0122148F8081CBFF34F8F3B
:107B10001968C90709D11968C90704BF19685FEA5C
:107B2000C17102D11968C907F2D00021C3F804114C
:107B30001968C90709D11968C90704BF19685FEA3C
:107B4000C17102D11968C907F2D0D10700D162B65C
:107B50000021012258F8043C122B6DD1ADE00068E1
:107B6000C0F30720452855D9D8F800005A21B0F1B4
:107B70005A0221EA0000B0FA80F018BF0122400941
:107B8000104001283BD14EF200430126C4F201030C
:107B9000EFF3108272B6C3F804611E68F60709D1CC
:107BA0001E68F60704BF1E685FEAC67602D11E682B
:107BB000F607F2D05A26C8F80060BFF34F8F1E6850
:107BC000F60709D11E68F60704BF1E685FEAC6768D
:107BD00002D11E68F607F2D00026C3F804611E68C1
:107BE000F60709D11E68F60704BF1E685FEAC6766D
:107BF00002D11E68F607F2D0D20700D162B640F279
:107C00000012C4F20002C2F8581458F8081C1229D5
:107C100006D05CE7002058F8081C12297FF457AF03
:107C20000022002158F8043C122B05D145E0002227
:107C300058F8043C122B40D0DD4315F0120F55D1FB
:107C40004EF200450126C4F20105EFF3108C72B626
:107C5000C5F804612E68F60709D12E68F60704BF3F
:107C60002E685FEAC67602D12E68F607F2D0122699
:107C700048F8046CBFF34F8F2E68F60709D12E68C1
:107C8000F60704BF2E685FEAC67602D12E68F607B3
:107C9000F2D00026C5F804612E68F60709D12E68D7
:107CA000F60704BF2E685FEAC67602D12E68F60793
:107CB000F2D05FEACC7600D162B6123B18BF012346
:107CC0001A4340EA020599B9D8F80400C0071CD14C
:107CD00040F20500C0F2000027F8160CA7F11600CC
:107CE00000F08EFDE278062A62D011E040EA02053B
:107CF00040F20400C0F20000ADF80000684600F059
:107D00007FFDD8F80400C007E2D0E278062A4FD001
:107D1000D8F8FC0000F00701914249D0C04310425E
:107D20003DD14EF200410123C4F20101EFF3108076
:107D300072B6C1F804310B68DB0709D10B68DB07A9
:107D400004BF0B685FEAC37302D10B68DB07F2D094
:107D500062F00702C8F8FC20BFF34F8F0A68D20711
:107D600009D10A68D20704BF0A685FEAC27202D169
:107D70000A68D207F2D00022C1F804210A68D207AB
:107D800009D10A68D20704BF0A685FEAC27202D149
:107D90000A68D207F2D0C0070BD162B609E040F200
:107DA0000300C0F20000ADF8040001A800F028FDB7
:107DB0008DB14EF60C50CEF20000BFF34F8F01682C
:107DC0000422C0F2FA5201F4E06111430160BFF3F2
:107DD0004F8F00BFFDE740F200102178C4F2000091
:107DE00081B10021012201604FF080410A600168E9
:107DF00041B90168002904BF0168002902D1016866
:107E00000029F4D0617949F6BC52C0F2020252F85E
:107E10002110C0F8181400214160012140F8F81C1D
:107E2000416841B94168002904BF4168002902D175
:107E300041680029F4D061780123402202250029FD
:107E40001CBF0121C0F88014A178C0F208050029E8
:107E50001CBF0121C0F8781440F220504FF0FF31D0
:107E6000C5F2000043600160C0F80433C0F800139D
:107E70004EF20010CEF200004EF20641C0F8802112
:107E8000CEF20001A6790E70026046F20432C4F20E
:107E900000024FF00046166041F20452C4F20102A3
:107EA0004FF40006966441F20006C4F20106C6F8DB
:107EB0000453B3603360E379166846B11668002E48
:107EC0001CBF1668002E02D01668002EF4D1CB72AB
:107ED0004FF40031016002B05DF8048BF0BD40F258
:107EE0000700C0F2000027F8120CA7F1120000F002
:107EF00087FC00F0E3FCF0B503AF2DE9000F81B083
:107F00004FF6006041F20439CFF6FF70C4F2010968
:107F100059F8001046F23808C2F2000801291CD1B5
:107F2000002149F8001000F0DFFCD8F810104FF4E1
:107F300040030131C8F810104A0A13EBC151D8E9C7
:107F4000003442F10002591A74EB02013CBF4FF4B5
:107F50008031C9F8001000F0D0FC4FF64860CFF631
:107F6000FF7059F8001001291CD1002149F80010B8
:107F700000F0BAFCD8F810104FF440030131C8F8F3
:107F800010104A0A13EBC151D8E9003442F1000243
:107F9000591A74EB02013CBF4FF48031C9F800104C
:107FA00000F0ABFC4FF63C60CFF6FF7059F80010C4
:107FB000012979D1002149F8001000F095FC4FF417
:107FC000803A4FF0FF32C9F804A0D8F80810C8E989
:107FD0000022002978D141F2405B0090C4F2010BED
:107FE000C8F80820D8F81000D9F8002200F00101E4
:107FF000430A82EAC15111EBC05208F10C0043F16F
:10800000000300F0B9F9D8F80820C8E900010132EE
:10801000C8F80820D8F81020D9F8004202F001036F
:1080200084EAC353540A13EBC25244F10003141AF6
:1080300073EB010428D2D41C43F10006051B71EB3D
:10804000060628BF0446821A24F07F4661EB03032C
:10805000B2F5400273F10002CBF8006028D2C9F8F3
:1080600000A0D8F81020D9F8006202F0010386EAD7
:10807000C353560AD2050232D21846F10003821ABF
:1080800071EB0302C6D317E0C9F804A04FF0FF322A
:10809000D8F80800C8E900220028A1D049F6D0503D
:1080A000C0F2020001F0FFF901B0BDE8000FF0BD21
:1080B0004FF48030C9F804005DF8040BBDE8000FF0
:1080C000BDE8F04000F019BC49F6E050C0F20200F3
:1080D00001F0E9F9F0B503AF2DE9000F83B01D46BB
:1080E0001646814600F000FCD9F80810002940F03F
:1080F000868002904FF0FF31B8683246C9F8081008
:108100002B46009009F10C00019000F0FCF80028CB
:1081100068D041F204584FF6006AC4F20108CFF665
:10812000FF7A4FF4803BD9F81000D8F8002000F017
:108130000101430A82EAC15111EBC052019843F197
:10814000000300F019F9C9E90001D9F81020D8F8A6
:10815000006002F0010386EAC353560A13EBC252D1
:1081600046F10003161A73EB010628D2D61C43F120
:108170000005841B71EB050528BF0646821A26F010
:108180007F4661EB0303B2F5400273F10002C8F8C9
:108190003C601FD248F80AB0D9F81020D8F8006027
:1081A00002F0010386EAC353560AD2050232D218FE
:1081B00046F10003821A71EB0302C6D312E04FF6B8
:1081C0000460CFF6FF7048F800B04FF0FF30C9E907
:1081D0000000A8E74FF604614FF48030CFF6FF713E
:1081E00048F80100D9F808000130C9F808000298E1
:1081F00003B0BDE8000FBDE8F04000F07EBB49F6DB
:10820000F050C0F2020001F04EF980B56F4646F220
:10821000380041F20452C2F20000C4F201020069C7
:10822000126800F0010182EAC151420A11EBC0500C
:1082300042F1000180BD80B56F4682B0034646F230
:10824000380000921A46C2F200000B46FFF742FFC8
:1082500002B080BD80B56F46FEE780B56F4680BD39
:10826000F0B503AF4DF8048D1D46164604464FF099
:108270000008FFF7CAFF8019694148F10002012A8E
:108280001FBF84F80880C4E900015DF8048BF0BDCD
:1082900049F6006049F62862C0F20200C0F202020C
:1082A000282101F08FF9B0B502AF0446007A0D46DF
:1082B00058B1FFF7AAFF02460B46D4E90001121A93
:1082C00073EB010203D30020B0BDD4E900012A689A
:1082D000FFF7B1FF01202072B0BD80B56F4682B0BC
:1082E000FFF793FF43F60952A0FB020301FB0231A3
:1082F000400A40EAC1504A0A00906846019200F0E4
:10830000C8FA02B080BDF0B503AF2DE90007D7F879
:10831000089080461D461646484600F0DFFA04469F
:10832000806848B1D4E90001801B71EB05001DD2C3
:108330000020BDE80007F0BDC4E90065D9E90010E0
:10834000D8F800A0C8F80040096888470546A0682A
:108350000E4600281EBFC168E068884704F1080087
:1083600080E860040120BDE80007F0BDC4E90065B5
:108370000120BDE80007F0BDF0B503AF2DE9000F07
:1083800081B0D0F800A0BAF1000F39D098469146DC
:1083900006464FF0000B4FF0FF344FF0FF3509E079
:1083A000DAF810003060CAF810B0D6F800A0BAF1C0
:1083B000000F29D0DAE90001B9EB000278EB0102E5
:1083C00015D24FF0FF3380EA03024B401A43031BE0
:1083D00071EB05033CBF0D460446002AE0D00AF1CC
:1083E0001006D6F800A0BAF1000FE3D10CE0DAE9EC
:1083F0000210CAF808B00029D2D049688847CFE7F0
:108400004FF0FF344FF0FF352046294601B0BDE85C
:10841000000FF0BDF0B503AF4DF8048D054600F038
:1084200063FAD5E9004680460020286054B1A1686F
:1084300030468847D5E90010C5E9004600291CBF31
:10844000C968884740465DF8048BBDE8F04000F0FD
:1084500054BA80B56F4608620268BFF35F8F06E0CA
:108460000023BFF32F8FDB07BFF35F8F65D1CA6196
:1084700050E800CF94450ED1BFF35F8F40E8001362
:10848000002B4FF0000308BF4FF0FF33DB07BFF3B3
:108490005F8F07D052E00023BFF32F8FDB07BFF3BE
:1084A0005F8F4BD1C1F81CC050E8002F62450ED140
:1084B000BFF35F8F40E80013002B4FF0000308BFAD
:1084C0004FF0FF33DB07BFF35F8F07D035E00023AA
:1084D000BFF32F8FDB07BFF35F8F2ED1CA6150E848
:1084E00000CF94450ED1BFF35F8F40E80013002BFF
:1084F0004FF0000308BF4FF0FF33DB07BFF35F8F80
:1085000007D01BE00023BFF32F8FDB07BFF35F8F84
:1085100014D1C1F81CC050E8002F6245A0D1BFF3B0
:108520005F8F40E80013002B4FF0000308BF4FF0AF
:10853000FF33DB07BFF35F8F99D06246002A18BF75
:1085400080BD4068411C1FBF80B24EF60071CEF264
:108550000001086018BF80BD40BF80BD80B56F4678
:1085600080BD80B56F4600F119014FF0010CBFF3DB
:108570005F8FD1E84F2FC1E843CF002BF9D1002AFC
:10858000BFF35F8F18BF80BDD0F820C0DCF800209B
:10859000BFF35F8F06E00021BFF32F8FC907BFF342
:1085A0005F8F63D1C2615CE8003F93420ED1BFF39D
:1085B0005F8F4CE8000100294FF0000108BF4FF029
:1085C000FF31C907BFF35F8F07D050E00021BFF331
:1085D0002F8FC907BFF35F8F49D1C3615CE8002FBC
:1085E0009A420ED1BFF35F8F4CE8000100294FF093
:1085F000000108BF4FF0FF31C907BFF35F8F07D0FD
:1086000034E00021BFF32F8FC907BFF35F8F2DD157
:10861000C2615CE8003F93420ED1BFF35F8F4CE82C
:10862000000100294FF0000108BF4FF0FF31C907DA
:10863000BFF35F8F07D01AE00021BFF32F8FC90768
:10864000BFF35F8F13D1C3615CE8002F9A42A2D1C0
:10865000BFF35F8F4CE8000100294FF0000108BF15
:108660004FF0FF31C907BFF35F8F9BD01A4602B1AD
:1086700080BDDCF80400411C1FBF80B24EF60071C3
:10868000CEF20001086018BF80BD40BF80BD80B53C
:108690006F46014649F63860C0F2020080BDB0B5B1
:1086A00002AF01460022BFF35F8F51E8000F41E89F
:1086B0000023002BF9D1BFF35F8F38B10024C569C7
:1086C0004476416A88472846002DF8D1B0BD80B570
:1086D0006F4682B040F21100C0F2000027F8020C91
:1086E000B81E00F0A1F802B080BD016849F63862FA
:1086F000C0F20202914204BF4068704780B56F46E5
:1087000082B040F20800C0F2000027F8020CB81E48
:1087100000F076F800F0D2F880B56F46D0E900029C
:10872000D268BDE88040104780B56F4682B0002017
:108730008029019003D28DF80410012133E04FF617
:10874000FE7C0A46C0F2FF3C88096CF39F12B1F52B
:10875000006F07D240F0C0008DF805208DF80400AE
:10876000022120E06CF39F104FEA113E0023B3EB8F
:10877000114F09D18DF805004EF0E0008DF806206C
:1087800003218DF804000EE06FF00F0343EA9141DE
:108790008DF8041004216CF39F1E8DF807208DF8CE
:1087A00006008DF805E001A8FEF7FFFF002002B0EB
:1087B00080BDF0B503AF4DF8048D86B091E87051DF
:1087C00049F654616A461346C0F2020183E87051CB
:1087D00000F016F906B05DF8048BF0BDD0B502AF1D
:1087E00082B00446FEF78AFF2088022127F80A0C8F
:1087F000A7F10A00FEF7D9FFFFF76FFD02B0D0BD69
:10880000D0B502AF82B00446FEF778FF208802217F
:1088100027F80A0CA7F10A00FEF7C7FFFFF75DFD76
:10882000FEF7BDFF02B0D0BD80B56F4682B00088B4
:10883000022127F8020CB81EFEF7B7FF02B080BD78
:1088400080B56F468CB0CDE9010148F21970C0F2D5
:10885000020003A9049001A80390002009900120C0
:10886000CDE9060149F65461089049F64860C0F226
:10887000020005AA0590781EC0F2020100F0C0F8BF
:1088800049F650600121C0F20200FEF78EFF0CB0E5
:1088900080BD80B56F4682B0D0E90001CDE900010E
:1088A00068460821FEF781FF02B080BD80B56F46A3
:1088B00008461146FEF779FF002080BD80B56F465F
:1088C00049F66C6049F67C62C0F20200C0F2020216
:1088D0000E2100F0B1FE80B56F4680BD80B56F46B9
:1088E000BDE88040FFF701BF80B56F46EFF3108011
:1088F000012172B621EA000080BD80B56F460028D4
:1089000008BF80BD62B680BD80B56F460B46D0E91A
:1089100000121846BDE8804000F07ABAF0B503AF07
:108920002DE9000F87B0046849F68C69A7F1260C81
:108930000B46C0F20209B4F57A7F37D349F27F685B
:108940000393002142F2107A41F27B4B4FF0640E08
:10895000C0F298082346029441F259720CEB0106CA
:10896000CDF2B7126046A3FB025C043943454FEADF
:108970005C35844605FB1A302B4684B24FEA9404DA
:1089800004FB0BF44FEA544404FB1E0039F8142096
:10899000F28080B239F810003081DDD8DDE9024381
:1089A0000A31092D06D82846A4B914E00A21254623
:1089B000092DF8D9A8B241F27B4280080239504310
:1089C0006422400C00FB125292B239F812202CF8AB
:1089D000012004B128B109EB4000013940780CF8BE
:1089E0000100C1F10A0061440122CDE900101846DE
:1089F0000121002300F0E0F807B0BDE8000FF0BD52
:108A0000F0B503AF2DE9000F85B092460022DAF8E9
:108A1000106001AB04922022CEF20002002E07C3A8
:108A20005DD0DAF81400002800F0878000EB4001E8
:108A3000DAF80040DAF80850013820F060404FEAD8
:108A4000C10B4FF000084FF000090130009004EB1B
:108A500009014A6832B1DDE901030968DB6898471A
:108A600000287BD109EB49003044018981B10129FB
:108A700017D1C16805EBC101898836F80820022AA0
:108A80000DD0012A13D1426805EBC20292880FE093
:108A900006EB0801498936F80820022AF1D10022A4
:108AA00006E0002136F80820022AEAD1F7E74288DA
:108AB000ADF81010D0E90410ADF81220039055F86D
:108AC000310005EBC1014A6801A99047002845D152
:108AD00008F1180809F10809C345B8D127E0DAF808
:108AE0000C0050B3DAF808B00DF10408DAF80050C1
:108AF00000260BEBC009C0000838012101EBD000B3
:108B0000009005EBC6014A682AB1DDE90103096856
:108B1000DB68984710BB0BEBC6044146D4E9000262
:108B20009047D8B9013604F108004845E9D1009AC8
:108B3000DAF80400824205D315E00022DAF80400D6
:108B4000824210D2DAF8000050F8321000EBC20076
:108B50004268DDE90103DB68984720B1012005B0D8
:108B6000BDE8000FF0BD002005B0BDE8000FF0BD6E
:108B7000F0B503AF4DF8048DD7F808801C460E46BB
:108B8000B2F5881F0AD03369114605469847014659
:108B9000284619B101205DF8048BF0BD3CB1F368A3
:108BA000214642465DF8048BBDE8F040184700209E
:108BB0005DF8048BF0BDD4D4F0B503AF2DE9000F00
:108BC00087B0FE689A461546814659B1D9F808B073
:108BD0001BF4001006EB50584FF02B0008BF4FF469
:108BE000881004E0D9F808B006F101082D2005909E
:108BF000B86804905FEA0B20CDF818A016D40025C1
:108C0000B9F80CA0D04579D306982B46D9E9004590
:108C100000902946059A2046FFF7AAFF00283ED07B
:108C20000124204607B0BDE8000FF0BDBAF1100FD7
:108C30003FD2BAF1000F41D00AF003015FEA9A0275
:108C40004FF000003CD002F003026B1CB446AE466D
:108C5000A0EB82026FF003041E19043496F903504E
:108C600015F1410FC8BF013096F9045015F1410FBD
:108C7000C8BF013096F9055015F1410FC8BF01304A
:108C800096F9066016F1410F02EB0406C8BF0130E9
:108C90000436E1D1221D6646754699B928E0EB6895
:108CA00020460499324607B0BDE8000FBDE8F04009
:108CB00018472846514600F096F919E0002017E0C1
:108CC0000022A9B1AB5613F1410FC8BF01300129F1
:108CD0000ED02A4492F9013013F1410FC8BF013080
:108CE000022905D092F9021011F1410FC8BF0130DD
:108CF0008044B9F80CA0D045BFF486AF5FEACB1032
:108D00000ED4CBF341700396AAEB08026FF35F5BBE
:108D10000024AA46DFE800F040023E0214463BE091
:108D2000D9E902102B46D9E900B401900020C9F618
:108D3000E07002910840214640F0005040F03000C1
:108D4000C9F80800069800905846059AFFF710FFEA
:108D5000002842D1AAEB08000396002586B2A8B2EB
:108D6000B04207D222695846302190470135002889
:108D7000F5D032E0DDE903215846E368984760BB4F
:108D8000DDE901100024C9E90201204607B0BDE871
:108D9000000FF0BD90B24408D9E9005800260292B5
:108DA000A0B2B1B2814208D2D8F810202846594664
:108DB000904701360028F3D00FE006984146009016
:108DC0002846059A5346FFF7D3FE30B9DDE9032163
:108DD0002846D8F80C30984728B10124204607B01F
:108DE000BDE8000FF0BD02980026001B1FFA80F9B5
:108DF0000024B0B2484538BF0124BFF412AFD8F800
:108E0000102028465946904701360028F0D008E740
:108E1000F0B503AF2DE9000F81B0D0F8089093466C
:108E2000884619F0C05F00F077805FEAC9013AD444
:108E3000BBF1100F55D2BBF1000F00F0B1800BF069
:108E4000030C5FEA9B034FF0000100F0AD8003F0DC
:108E5000030308F101066FF00305A1EB8303741906
:108E6000043594F9032012F1410FC8BF013194F980
:108E7000042012F1410FC8BF013194F9052012F10D
:108E8000410FC8BF013194F9062012F1410F03EBE5
:108E90000502C8BF01310432E1D12B1DBCF1000F26
:108EA00040F0868029E0C18919B308EB0B034FF02D
:108EB000000B45460A4607E0F02D2CBF351DF51C7A
:108EC000AE1B013AB34416D09D4215D02E4615F97B
:108ED000014BB4F1FF3FF3DCE5B2E02DECD2B51C61
:108EE000EEE704464046594600F07DF8014620462C
:108EF00003E04FF0000B0022891A828991420BD2C5
:108F0000531AC9F341716FF35F590026DFE801F08E
:108F100011020F111E460CE0D0E900015A46CB6841
:108F2000414601B0BDE8000FBDE8F040184799B2D6
:108F30004E08D0E9005A00240093B0B2A1B2814299
:108F40000DD2DAF81020284649469047013400280F
:108F5000F3D00126304601B0BDE8000FF0BDDAF8CD
:108F60000C30284641465A46984728B101263046DB
:108F700001B0BDE8000FF0BD00980024801B1FFA6F
:108F800080F80026A0B2404538BF0126E2D2DAF8C8
:108F9000102028464946904701340028F1D0D9E7EF
:108FA0004FF0000B0021A8E70023BCF1000FA4D074
:108FB00018F9032012F1410FC8BF0131BCF1010FB4
:108FC0009BD0434493F9012012F1410FC8BF0131F6
:108FD000BCF1020F3FF491AF93F9022012F1410F5F
:108FE000C8BF013189E7F0B503AF2DE9000F81B0AB
:108FF0008046033020F00300A0EB0806B14234D2D3
:10900000002945D001F0030389084FF0000000F06B
:109010002982A0EB810108F101066FF003057219A6
:10902000043592F9034014F1410FC8BF013092F9A1
:10903000044014F1410FC8BF013092F9054014F10A
:10904000410FC8BF013092F9062012F1410F01EB28
:109050000502C8BF01300432E1D1291D002B40F0C8
:10906000058201B0BDE8000FF0BDA1EB060E5FEA7E
:109070009E0BC5D00EF0030C404501D1002048E006
:10908000A8EB000010F1040F07D90020002528E00C
:10909000002001B0BDE8000FF0BD08F10104002080
:1090A0006FF00301651895F9032012F1410FC8BF55
:1090B000013095F9042012F1410FC8BF013095F934
:1090C000052012F1410FC8BF013095F9062012F1B9
:1090D000410F01F10402C8BF013011F1080511462A
:1090E000E0D118F9051011F1410FC8BF0130012E70
:1090F0000FD008EB050191F9012012F1410FC8BF13
:109100000130022E05D091F9021011F1410FC8BFB4
:10911000013008EB06040022BCF1000F1AD02EF03B
:109120000301214491F9006016F1410FC8BF0122EB
:10913000BCF1010F0ED091F9016016F1410FC8BFCB
:109140000132BCF1020F05D091F9021011F1410F6B
:10915000C8BF0132104412E04FF000083FFA88F116
:109160003FFA98F21144ABEB0A0B09EB8A041AF0B0
:10917000030601EB014100EB114040F04281BBF1DD
:10918000000F3FF46EAFA146BBF1C00FDA4628BF17
:109190004FF0C00ABBF1040FDED36FF00F0101EBFB
:1091A0008A040121302C01EB1411009103D24FF0FD
:1091B00000084C46A8E021F003064FF000084C469A
:1091C00094E80E10043E6FEA010E4FEADE1545EA00
:1091D00091116FEA020521F0FE314FEAD51545EAFB
:1091E0009212414422F0FE3211446FEA03024FEA28
:1091F000D21242EA931222F0FE3211446FEA0C02BC
:109200004FEAD21242EA9C1222F0FE321144226945
:109210006FEA02034FEAD31343EA921222F0FE32BE
:10922000114462696FEA02034FEAD31343EA9212D0
:1092300022F0FE321144A2696FEA02034FEAD3130F
:1092400043EA921222F0FE321144E2696FEA02030D
:109250004FEAD31343EA921222F0FE321144226AFB
:109260006FEA02034FEAD31343EA921222F0FE326E
:109270001144626A6FEA02034FEAD31343EA92127F
:1092800022F0FE321144A26A6FEA02034FEAD313BE
:1092900043EA921222F0FE321144E26A6FEA0203BC
:1092A0004FEAD31343EA921222F0FE321144226BAA
:1092B0006FEA02034FEAD31343EA921222F0FE321E
:1092C0001144626B6FEA02034FEAD31343EA92122E
:1092D00022F0FE321144A26B6FEA02034FEAD3136D
:1092E00043EA921222F0FE321144E26B04F1400490
:1092F0006FEA02034FEAD31343EA921222F0FE32DE
:1093000002EB01087FF45CAF009911F0030C3FF40D
:1093100025AF94E82E00BCF1010F6FEA01064FEA79
:10932000D61646EA91116FEA020621F0FE314FEAA5
:10933000D61646EA9212414422F0FE3211446FEAF8
:1093400003024FEAD21242EA931222F0FE32114493
:109350006FEA05024FEAD21242EA951222F0FE327B
:1093600002EB01083FF4FAAE04F11006BCF1020F63
:109370004ECE6FEA01054FEAD51545EA91116FEA25
:10938000020521F0FE314FEAD51545EA921241441B
:1093900022F0FE3211446FEA03024FEAD21242EA8F
:1093A000931222F0FE3211446FEA06024FEAD21203
:1093B00042EA961222F0FE3202EB01083FF4CEAEF2
:1093C00004F120064ECECD43ED0945EA9111D54377
:1093D00021F0FE31ED0945EA9212414422F0FE32BD
:1093E0001144DA43D20942EA931222F0FE321144C8
:1093F000F243D20942EA961222F0FE3202EB010851
:10940000ACE60AF0FC03012E59F823106FEA0102C2
:109410004FEAD21242EA911121F0FE3215D009EB47
:109420008301022E4B686FEA03054FEAD51545EA22
:10943000931323F0FE331A4407D08968CB43DB092A
:1094400043EA911121F0FE310A443FFA82F13FFADA
:1094500092F2114401EB014100EB114001B0BDE873
:10946000000FF0BD0021002B3FF4FBAD18F90120E7
:1094700012F1410FC8BF0130012B3FF4F2AD41445E
:1094800091F9012012F1410FC8BF0130022B3FF4C6
:10949000E8AD91F9021011F1410FC8BF013001B0E0
:1094A000BDE8000FF0BD80B56F4600F000F880B554
:1094B0006F468AB00146002005900120029049F6CF
:1094C0004862049007A8039049F27560C0F2020058
:1094D000C0F202020890781E079001A8019200F0E5
:1094E000BEF880B56F46904203D911461A4600F087
:1094F0000CF8914204D8884202D91A4600F043F889
:10950000084611461A4600F01FF880B56F468CB029
:10951000CDE90001002049F6987106900220C0F2C2
:1095200002010390059008A8029101A9049048F651
:109530001D10C0F20200CDE9090111460B906846EA
:10954000089002A800F08BF880B56F468CB0CDE98A
:109550000001002049F6A87106900220C0F2020125
:109560000390059008A8029101A9049048F61D10E7
:10957000C0F20200CDE9090111460B90684608903F
:1095800002A800F06CF880B56F468CB0CDE9000100
:10959000002049F6DC7106900220C0F2020103901F
:1095A000059008A8029101A9049048F61D10C0F288
:1095B0000200CDE9090111460B906846089002A807
:1095C00000F04DF880B56F468AB0CDE9000100206B
:1095D00006900120039049F64861059008A8049080
:1095E00048F60910C0F20200C0F202010990684674
:1095F000089002A80291114600F031F880B56F463C
:109600008CB0CDE9000100200690022008490291AB
:1096100069460390059008A804900648CDE9090121
:1096200011460B9001A8089002A800F018F800BF9E
:1096300020A002001D89020080B56F4688B09446C4
:109640000122019206AA0023CDE90601009204221C
:109650006846614604930393029200F000F880B5D7
:109660006F4684B0CDE9010101A80122ADF80C20BC
:10967000FDF745FE80B56F4608464AF23001C0F25C
:1096800002011822BDE88040FFF7C2BBF0B503AF6E
:109690002DE9000F8FB0D1E900BA4AF26401DAF87F
:1096A0000C608146C0F202010C225846B04720B13E
:1096B00001200FB0BDE8000FF0BDD9F804000DF196
:1096C0002408CDF80C80D0E90012CDE907124AF247
:1096D0004C020021C0F2020205910321019200F127
:1096E0000C0208300B9048F609100291049148F6DC
:1096F0001D11C0F20201C0F20200CDE90C1201AA54
:109700000A9007A80E91514609905846FFF778F93C
:1097100020B101200FB0BDE8000FF0BD4AF270018A
:109720005846C0F202010222B04720B101200FB01A
:10973000BDE8000FF0BDD9F800C041469CE87D00AF
:109740007DC1584651464246FFF75AF90FB0BDE871
:10975000000FF0BD80B56F46BDE8804000F000B856
:10976000F0B503AF2DE9000F8BB0102A1ED3434292
:1097700003F0030800EB0803984233D2A8F1010C70
:1097800006460C46B8F1000F1AD00C46064614F8EF
:1097900001EBB8F1010F06F801EB11D04E78B8F1EA
:1097A000020F467008D18C1C861C09E084460CEB25
:1097B00002039C4540D36CE08E78CC1C8670C61C9E
:1097C000BCF1030F0ED3043C043E14F8045F06F80A
:1097D000045F65787570A578B570E578F570351D0E
:1097E0009D42F2D1A2EB080E01EB08042EF0030219
:1097F00014F0030603EB020C59D1634515D2214640
:109800000D6843F8045B63450FD24D6843F8045B71
:1098100063453EBF8D6843F8045B634505D2CD6860
:10982000103143F8045B6345EAD3A1180EF003023C
:109830000CEB02039C452CD2A2F1010E12F00304A2
:1098400013D00A46654612F8016B012C05F8016B2E
:109850000DD04A78022C8CF801201ED18A1C0CF104
:109860000205BEF1030F05D213E065460A46BEF1BC
:10987000030F0ED3111F2A1F11F8046F02F8046F93
:109880004E7856708E789670CE78D670161D9E42A1
:10989000F2D10BB0BDE8000FF0BD8A780CF10305E2
:1098A0008CF80220CA1CBEF1030FE3D2F1E74FF09F
:1098B000000AC6F1040B0AADCDF828A005EB060995
:1098C0005FEACB751EBF257889F800504FF0010A7A
:1098D000A51B0795F50005955FEA8B7544BF34F825
:1098E0000A5029F80A501D1DDDF828A06545059D80
:1098F000C5F1000B78D27342D14619440BF018031E
:10990000CDF800B082468B4607930BEB0803069315
:1099100029FA05F9CDF80CB05968079BCDF808A0D5
:1099200001FA03F343EA09030AEB0809CB464BF8B3
:10993000083BE34544D221FA05F30493069BDDF886
:1099400010A09968079B01FA03F343EA0A03C9F8D8
:10995000043009F10C03634538D2E940079D0491B6
:109960000699DDF810A0C968019101FA05F509F121
:10997000100145EA0A056145CBF800502FD2059940
:10998000019DDDF808A0DDF80CB025FA01F1069D77
:109990000AF1100A0BF1100BD5F81090079D09FA87
:1099A00005F52943059D19600AEB0803191D61455A
:1099B000ABD30BEB08010791DDF800B0CA4613E00A
:1099C000069B0433079309F1040304E0069B083364
:1099D000079309F10803DDF800B08A4604E0DDE9E9
:1099E00000BA06990C3107910021012E8DF8241040
:1099F00007F8261C05D10DF124094FF000080026B8
:109A000009E0079DA7F12609022629796D798DF8CD
:109A100024104FEA0528E50701D1002609E007993F
:109A20000431895D89F8001017F8261C0E049DF892
:109A3000241046EA0806059D31430BF01806B14094
:109A40002AFA05F529431960EFE680B56F46FEE76F
:109A500000000000000000000400000004000000FE
:109A6000637302006465666D74206C6F676765726E
:109A70002074616B656E207265656E7472616E74C0
:109A80006C790000649A02001E0000002F55736577
:109A900072732F6A6B2F2E636172676F2F72656707
:109AA00069737472792F7372632F696E6465782E8F
:109AB0006372617465732E696F2D31393439636651
:109AC000386336623562353537662F6465666D7486
:109AD0002D7274742D312E312E302F7372632F6CD2
:109AE00069622E7273002F55736572732F6A6B2F24
:109AF0002E636172676F2F72656769737472792F55
:109B00007372632F696E6465782E63726174657316
:109B10002E696F2D313934396366386336623562A8
:109B2000353537662F6465666D742D312E302E31D4
:109B30002F7372632F6C69622E7273002F557365D9
:109B400072732F6A6B2F2E636172676F2F72656756
:109B500069737472792F7372632F696E6465782EDE
:109B60006372617465732E696F2D313934396366A0
:109B7000386336623562353537662F656D626173DD
:109B800073792D74696D652D302E352E302F7372DB
:109B9000632F696E7374616E742E7273002F557328
:109BA0006572732F6A6B2F2E636172676F2F7265F8
:109BB0006769737472792F7372632F696E64657845
:109BC0002E6372617465732E696F2D313934396378
:109BD00066386336623562353537662F656D62618A
:109BE0007373792D6E72662D302E392E302F73726D
:109BF000632F74696D655F6472697665722E727326
:109C0000002F55736572732F6A6B2F2E6361726715
:109C10006F2F72656769737472792F7372632F691E
:109C20006E6465782E6372617465732E696F2D3171
:109C30003934396366386336623562353537662FB5
:109C40006E72662D7061632D302E322E302F73723E
:109C5000632F2E2F63686970732F6E7266353238EA
:109C600034302F7061632E7273002F5573657273D9
:109C70002F6A6B2F2E636172676F2F72656769732E
:109C80007472792F7372632F696E6465782E6372B4
:109C9000617465732E696F2D3139343963663863A9
:109CA00036623562353537662F6465666D742D72A0
:109CB00074742D312E312E302F7372632F636861CF
:109CC0006E6E656C2E7273002F55736572732F6AFA
:109CD0006B2F2E636172676F2F7265676973747281
:109CE000792F7372632F696E6465782E6372617465
:109CF00065732E696F2D3139343963663863366286
:109D00003562353537662F656D62617373792D6EF7
:109D100072662D302E392E302F7372632F67706963
:109D20006F74652E727300008C9A02005900000057
:109D3000960000000D0000006465666D7420726579
:109D40006C65617365206F7574206F6620636F6E3C
:109D500074657874389D02001C0000008C9A020023
:109D600059000000CB0000000D0000006A9C0200BA
:109D70005D000000260000001F0000006173736595
:109D80007274696F6E206661696C65643A206E203A
:109D90003C2033327573697A65000000019C020033
:109DA00068000000ED3600000D000000C89C0200B5
:109DB0005E000000F900000011000000000000003B
:109DC0000200000001000000010002000100030089
:109DD0009D9B020063000000040100002A000000B7
:109DE0009D9B020063000000020100002E000000A5
:109DF0009D9B02006300000067010000330000002B
:109E00006F766572666C6F77207768656E20616427
:109E100064696E67206475726174696F6E20746F17
:109E200020696E7374616E743C9B020060000000D8
:109E3000A80000000E0000008F860200638502006B
:109E4000638502005D850200010000000000000043
:109E5000FF00000000000000000000000100000002
:109E6000AD88020029870200B38702006578706C14
:109E7000696369742070616E69630000E69A02008C
:109E80005500000081010000050000003030303135
:109E90003032303330343035303630373038303996
:109EA000313031313132313331343135313631378E
:109EB0003138313932303231323232333234323574
:109EC000323632373238323933303331333233335A
:109ED0003334333533363337333833393430343140
:109EE0003432343334343435343634373438343926
:109EF000353035313532353335343535353635371E
:109F00003538353936303631363236333634363503
:109F100036363637363836393730373137323733E9
:109F200037343735373637373738373938303831CF
:109F300038323833383438353836383738383839B5
:109F400039303931393239333934393539363937AD
:109F50003938393972616E676520656E6420696EC3
:109F60006465782072616E67652073746172742015
:109F7000696E64657820206F7574206F6620726149
:109F80006E676520666F7220736C696365206F660B
:109F9000206C656E67746820649F020012000000E8
:109FA000769F020022000000549F02001000000073
:109FB000769F020022000000736C69636520696E61
:109FC00064657820737461727473206174202062F8
:109FD000757420656E64732061742000B89F020060
:109FE00016000000CE9F02000D000000696E64653F
:109FF00078206F7574206F6620626F756E64733A97
:10A0000020746865206C656E206973202062757409
:10A010002074686520696E6465782069732000008B
:10A02000EC9F0200200000000CA0020012000000C3
:10A0300052656643656C6C20616C72656164792061
:10A04000626F72726F7765643A0000000100000071
:10A050000000000048A002000100000048A002002B
:10A060000100000070616E69636B6564206174209B
:04A070003A0A0000A8
:10A078006465666D74000000534547474552205299
:10A08800545400000000000001000000000000001F
:10A09800006000205C620020000400000000000056
:10A0A8000000000001000000FFFFFFFFFFFFFFFFAF
:10A0B8000000000000000000000000000000000098
:040000032000710167
:00000001FF
